{
  "_format": "hh-sol-artifact-1",
  "contractName": "BuyMeACoffee",
  "sourceName": "contracts/BuyMeACoffee.sol",
  "abi": [
    {
      "inputs": [],
      "stateMutability": "nonpayable",
      "type": "constructor"
    },
    {
      "anonymous": false,
      "inputs": [
        {
          "indexed": true,
          "internalType": "string",
          "name": "name",
          "type": "string"
        },
        {
          "indexed": false,
          "internalType": "string",
          "name": "message",
          "type": "string"
        },
        {
          "indexed": false,
          "internalType": "address",
          "name": "creator",
          "type": "address"
        },
        {
          "indexed": false,
          "internalType": "uint256",
          "name": "timestamp",
          "type": "uint256"
        },
        {
          "indexed": false,
          "internalType": "uint8",
          "name": "coffType",
          "type": "uint8"
        },
        {
          "indexed": false,
          "internalType": "uint8",
          "name": "coffSize",
          "type": "uint8"
        }
      ],
      "name": "NewMemo",
      "type": "event"
    },
    {
      "inputs": [
        {
          "internalType": "string",
          "name": "_name",
          "type": "string"
        },
        {
          "internalType": "string",
          "name": "_message",
          "type": "string"
        },
        {
          "internalType": "uint8",
          "name": "_coffType",
          "type": "uint8"
        },
        {
          "internalType": "uint8",
          "name": "_coffSize",
          "type": "uint8"
        }
      ],
      "name": "buyCoffee",
      "outputs": [],
      "stateMutability": "payable",
      "type": "function"
    },
    {
      "inputs": [
        {
          "internalType": "uint256",
          "name": "_price",
          "type": "uint256"
        }
      ],
      "name": "changePrice",
      "outputs": [],
      "stateMutability": "nonpayable",
      "type": "function"
    },
    {
      "inputs": [],
      "name": "getMemos",
      "outputs": [
        {
          "components": [
            {
              "internalType": "string",
              "name": "name",
              "type": "string"
            },
            {
              "internalType": "string",
              "name": "message",
              "type": "string"
            },
            {
              "internalType": "address",
              "name": "creator",
              "type": "address"
            },
            {
              "internalType": "uint256",
              "name": "timestamp",
              "type": "uint256"
            },
            {
              "internalType": "uint8",
              "name": "coffType",
              "type": "uint8"
            },
            {
              "internalType": "uint8",
              "name": "coffSize",
              "type": "uint8"
            }
          ],
          "internalType": "struct BuyMeACoffee.Memo[]",
          "name": "",
          "type": "tuple[]"
        }
      ],
      "stateMutability": "view",
      "type": "function"
    },
    {
      "inputs": [],
      "name": "price",
      "outputs": [
        {
          "internalType": "uint256",
          "name": "",
          "type": "uint256"
        }
      ],
      "stateMutability": "view",
      "type": "function"
    },
    {
      "inputs": [],
      "name": "withdrawTips",
      "outputs": [],
      "stateMutability": "nonpayable",
      "type": "function"
    }
  ],
  "bytecode": "0x608060405266038d7ea4c6800060015534801561001b57600080fd5b50600080546001600160a01b031916331790556109cf8061003d6000396000f3fe60806040526004361061004a5760003560e01c80633aaa74b21461004f578063865c5172146100665780639ea4875514610091578063a035b1fe146100a4578063a2b40d19146100c8575b600080fd5b34801561005b57600080fd5b506100646100e8565b005b34801561007257600080fd5b5061007b61017b565b60405161008891906105d5565b60405180910390f35b61006461009f366004610751565b61033c565b3480156100b057600080fd5b506100ba60015481565b604051908152602001610088565b3480156100d457600080fd5b506100646100e33660046107d6565b61052f565b6000546001600160a01b0316331461013e5760405162461bcd60e51b81526020600482015260146024820152732cb7ba9030b932b713ba103a34329037bbb732b960611b60448201526064015b60405180910390fd5b600080546040516001600160a01b03909116914780156108fc02929091818181858888f19350505050158015610178573d6000803e3d6000fd5b50565b60606002805480602002602001604051908101604052809291908181526020016000905b8282101561033357838290600052602060002090600502016040518060c00160405290816000820180546101d2906107ef565b80601f01602080910402602001604051908101604052809291908181526020018280546101fe906107ef565b801561024b5780601f106102205761010080835404028352916020019161024b565b820191906000526020600020905b81548152906001019060200180831161022e57829003601f168201915b50505050508152602001600182018054610264906107ef565b80601f0160208091040260200160405190810160405280929190818152602001828054610290906107ef565b80156102dd5780601f106102b2576101008083540402835291602001916102dd565b820191906000526020600020905b8154815290600101906020018083116102c057829003601f168201915b505050918352505060028201546001600160a01b03166020808301919091526003830154604083015260049092015460ff808216606084015261010090910416608090910152908252600192909201910161019f565b50505050905090565b6001543410156103845760405162461bcd60e51b8152602060048201526013602482015272125b9cdd59999a58da595b9d08185b5bdd5b9d606a1b6044820152606401610135565b60048260ff1610801561039a575060048160ff16105b6103e65760405162461bcd60e51b815260206004820152601b60248201527f496e76616c696420636f666665652074797065206f722073697a6500000000006044820152606401610135565b6040805160c08101825285815260208101859052339181019190915242606082015260ff8084166080830152821660a082015260028054600181018255600091909152815160059091027f405787fa12a823e0f2b7631cc41b3ba8828b3321ca811111fa75cd3aa3bb5ace0190819061045f908261087a565b5060208201516001820190610474908261087a565b506040828101516002830180546001600160a01b039092166001600160a01b03199092169190911790556060830151600383015560808301516004909201805460a09094015160ff9081166101000261ffff19909516931692909217929092179055516104e290859061093a565b60405180910390207fe1f893a87309d1059e16434d8e9e60f528e522cc18e94322435d4fc7c5b3984a8433428686604051610521959493929190610956565b60405180910390a250505050565b6000546001600160a01b031633146105805760405162461bcd60e51b81526020600482015260146024820152732cb7ba9030b932b713ba103a34329037bbb732b960611b6044820152606401610135565b600155565b60005b838110156105a0578181015183820152602001610588565b50506000910152565b600081518084526105c1816020860160208601610585565b601f01601f19169290920160200192915050565b600060208083018184528085518083526040925060408601915060408160051b87010184880160005b8381101561068a57603f19898403018552815160c08151818652610624828701826105a9565b915050888201518582038a87015261063c82826105a9565b898401516001600160a01b0316878b01526060808501519088015260808085015160ff9081169189019190915260a094850151169390960192909252505093860193908601906001016105fe565b509098975050505050505050565b634e487b7160e01b600052604160045260246000fd5b600082601f8301126106bf57600080fd5b813567ffffffffffffffff808211156106da576106da610698565b604051601f8301601f19908116603f0116810190828211818310171561070257610702610698565b8160405283815286602085880101111561071b57600080fd5b836020870160208301376000602085830101528094505050505092915050565b803560ff8116811461074c57600080fd5b919050565b6000806000806080858703121561076757600080fd5b843567ffffffffffffffff8082111561077f57600080fd5b61078b888389016106ae565b955060208701359150808211156107a157600080fd5b506107ae878288016106ae565b9350506107bd6040860161073b565b91506107cb6060860161073b565b905092959194509250565b6000602082840312156107e857600080fd5b5035919050565b600181811c9082168061080357607f821691505b60208210810361082357634e487b7160e01b600052602260045260246000fd5b50919050565b601f821115610875576000816000526020600020601f850160051c810160208610156108525750805b601f850160051c820191505b818110156108715782815560010161085e565b5050505b505050565b815167ffffffffffffffff81111561089457610894610698565b6108a8816108a284546107ef565b84610829565b602080601f8311600181146108dd57600084156108c55750858301515b600019600386901b1c1916600185901b178555610871565b600085815260208120601f198616915b8281101561090c578886015182559484019460019091019084016108ed565b508582101561092a5787850151600019600388901b60f8161c191681555b5050505050600190811b01905550565b6000825161094c818460208701610585565b9190910192915050565b60a08152600061096960a08301886105a9565b6001600160a01b0396909616602083015250604081019390935260ff91821660608401521660809091015291905056fea2646970667358221220ecf7d78ba1bfc7fa3aa577d43336f21e4d8cefc6ccd7d62661f371796ac51d8064736f6c63430008180033",
  "linkReferences": {},
  "deployedLinkReferences": {}
}