{
  "_format": "hh-sol-artifact-1",
  "contractName": "BuyMeACoffee",
  "sourceName": "contracts/BuyMeACoffee.sol",
  "abi": [
    {
      "inputs": [],
      "stateMutability": "nonpayable",
      "type": "constructor"
    },
    {
      "anonymous": false,
      "inputs": [
        {
          "indexed": true,
          "internalType": "string",
          "name": "name",
          "type": "string"
        },
        {
          "indexed": false,
          "internalType": "string",
          "name": "message",
          "type": "string"
        },
        {
          "indexed": false,
          "internalType": "address",
          "name": "creator",
          "type": "address"
        },
        {
          "indexed": false,
          "internalType": "uint256",
          "name": "timestamp",
          "type": "uint256"
        }
      ],
      "name": "NewMemo",
      "type": "event"
    },
    {
      "inputs": [
        {
          "internalType": "string",
          "name": "_name",
          "type": "string"
        },
        {
          "internalType": "string",
          "name": "_message",
          "type": "string"
        },
        {
          "internalType": "uint256",
          "name": "tipAmount",
          "type": "uint256"
        }
      ],
      "name": "buyCoffee",
      "outputs": [],
      "stateMutability": "payable",
      "type": "function"
    },
    {
      "inputs": [
        {
          "internalType": "uint256",
          "name": "_price",
          "type": "uint256"
        }
      ],
      "name": "changePrice",
      "outputs": [],
      "stateMutability": "nonpayable",
      "type": "function"
    },
    {
      "inputs": [],
      "name": "getMemos",
      "outputs": [
        {
          "components": [
            {
              "internalType": "string",
              "name": "name",
              "type": "string"
            },
            {
              "internalType": "string",
              "name": "message",
              "type": "string"
            },
            {
              "internalType": "address",
              "name": "creator",
              "type": "address"
            },
            {
              "internalType": "uint256",
              "name": "timestamp",
              "type": "uint256"
            }
          ],
          "internalType": "struct BuyMeACoffee.Memo[]",
          "name": "",
          "type": "tuple[]"
        }
      ],
      "stateMutability": "view",
      "type": "function"
    },
    {
      "inputs": [],
      "name": "price",
      "outputs": [
        {
          "internalType": "uint256",
          "name": "",
          "type": "uint256"
        }
      ],
      "stateMutability": "view",
      "type": "function"
    },
    {
      "inputs": [],
      "name": "withdrawTips",
      "outputs": [],
      "stateMutability": "nonpayable",
      "type": "function"
    }
  ],
  "bytecode": "0x608060405266038d7ea4c6800060015534801561001b57600080fd5b50336000806101000a81548173ffffffffffffffffffffffffffffffffffffffff021916908373ffffffffffffffffffffffffffffffffffffffff160217905550610fa18061006b6000396000f3fe60806040526004361061004a5760003560e01c80633aaa74b21461004f578063441315c514610066578063865c517214610082578063a035b1fe146100ad578063a2b40d19146100d8575b600080fd5b34801561005b57600080fd5b50610064610101565b005b610080600480360381019061007b91906107cc565b6101f8565b005b34801561008e57600080fd5b506100976103bb565b6040516100a49190610a52565b60405180910390f35b3480156100b957600080fd5b506100c261059e565b6040516100cf9190610a83565b60405180910390f35b3480156100e457600080fd5b506100ff60048036038101906100fa9190610a9e565b6105a4565b005b60008054906101000a900473ffffffffffffffffffffffffffffffffffffffff1673ffffffffffffffffffffffffffffffffffffffff163373ffffffffffffffffffffffffffffffffffffffff161461018f576040517f08c379a000000000000000000000000000000000000000000000000000000000815260040161018690610b28565b60405180910390fd5b60008054906101000a900473ffffffffffffffffffffffffffffffffffffffff1673ffffffffffffffffffffffffffffffffffffffff166108fc479081150290604051600060405180830381858888f193505050501580156101f5573d6000803e3d6000fd5b50565b60015434101561023d576040517f08c379a000000000000000000000000000000000000000000000000000000000815260040161023490610b94565b60405180910390fd5b3073ffffffffffffffffffffffffffffffffffffffff166108fc829081150290604051600060405180830381858888f19350505050158015610283573d6000803e3d6000fd5b50600260405180608001604052808581526020018481526020013373ffffffffffffffffffffffffffffffffffffffff16815260200142815250908060018154018082558091505060019003906000526020600020906004020160009091909190915060008201518160000190816102fb9190610dc0565b5060208201518160010190816103119190610dc0565b5060408201518160020160006101000a81548173ffffffffffffffffffffffffffffffffffffffff021916908373ffffffffffffffffffffffffffffffffffffffff160217905550606082015181600301555050826040516103739190610ece565b60405180910390207f1a6374cc211761ea391f5fb7e5b9227bcce706a78aa5318f2883e7d11539c4448333426040516103ae93929190610f2d565b60405180910390a2505050565b60606002805480602002602001604051908101604052809291908181526020016000905b82821015610595578382906000526020600020906004020160405180608001604052908160008201805461041290610be3565b80601f016020809104026020016040519081016040528092919081815260200182805461043e90610be3565b801561048b5780601f106104605761010080835404028352916020019161048b565b820191906000526020600020905b81548152906001019060200180831161046e57829003601f168201915b505050505081526020016001820180546104a490610be3565b80601f01602080910402602001604051908101604052809291908181526020018280546104d090610be3565b801561051d5780601f106104f25761010080835404028352916020019161051d565b820191906000526020600020905b81548152906001019060200180831161050057829003601f168201915b505050505081526020016002820160009054906101000a900473ffffffffffffffffffffffffffffffffffffffff1673ffffffffffffffffffffffffffffffffffffffff1673ffffffffffffffffffffffffffffffffffffffff168152602001600382015481525050815260200190600101906103df565b50505050905090565b60015481565b60008054906101000a900473ffffffffffffffffffffffffffffffffffffffff1673ffffffffffffffffffffffffffffffffffffffff163373ffffffffffffffffffffffffffffffffffffffff1614610632576040517f08c379a000000000000000000000000000000000000000000000000000000000815260040161062990610b28565b60405180910390fd5b8060018190555050565b6000604051905090565b600080fd5b600080fd5b600080fd5b600080fd5b6000601f19601f8301169050919050565b7f4e487b7100000000000000000000000000000000000000000000000000000000600052604160045260246000fd5b6106a38261065a565b810181811067ffffffffffffffff821117156106c2576106c161066b565b5b80604052505050565b60006106d561063c565b90506106e1828261069a565b919050565b600067ffffffffffffffff8211156107015761070061066b565b5b61070a8261065a565b9050602081019050919050565b82818337600083830152505050565b6000610739610734846106e6565b6106cb565b90508281526020810184848401111561075557610754610655565b5b610760848285610717565b509392505050565b600082601f83011261077d5761077c610650565b5b813561078d848260208601610726565b91505092915050565b6000819050919050565b6107a981610796565b81146107b457600080fd5b50565b6000813590506107c6816107a0565b92915050565b6000806000606084860312156107e5576107e4610646565b5b600084013567ffffffffffffffff8111156108035761080261064b565b5b61080f86828701610768565b935050602084013567ffffffffffffffff8111156108305761082f61064b565b5b61083c86828701610768565b925050604061084d868287016107b7565b9150509250925092565b600081519050919050565b600082825260208201905092915050565b6000819050602082019050919050565b600081519050919050565b600082825260208201905092915050565b60005b838110156108bd5780820151818401526020810190506108a2565b60008484015250505050565b60006108d482610883565b6108de818561088e565b93506108ee81856020860161089f565b6108f78161065a565b840191505092915050565b600073ffffffffffffffffffffffffffffffffffffffff82169050919050565b600061092d82610902565b9050919050565b61093d81610922565b82525050565b61094c81610796565b82525050565b6000608083016000830151848203600086015261096f82826108c9565b9150506020830151848203602086015261098982826108c9565b915050604083015161099e6040860182610934565b5060608301516109b16060860182610943565b508091505092915050565b60006109c88383610952565b905092915050565b6000602082019050919050565b60006109e882610857565b6109f28185610862565b935083602082028501610a0485610873565b8060005b85811015610a405784840389528151610a2185826109bc565b9450610a2c836109d0565b925060208a01995050600181019050610a08565b50829750879550505050505092915050565b60006020820190508181036000830152610a6c81846109dd565b905092915050565b610a7d81610796565b82525050565b6000602082019050610a986000830184610a74565b92915050565b600060208284031215610ab457610ab3610646565b5b6000610ac2848285016107b7565b91505092915050565b600082825260208201905092915050565b7f596f75206172656e277420746865206f776e6572000000000000000000000000600082015250565b6000610b12601483610acb565b9150610b1d82610adc565b602082019050919050565b60006020820190508181036000830152610b4181610b05565b9050919050565b7f496e73756666696369656e7420616d6f756e7400000000000000000000000000600082015250565b6000610b7e601383610acb565b9150610b8982610b48565b602082019050919050565b60006020820190508181036000830152610bad81610b71565b9050919050565b7f4e487b7100000000000000000000000000000000000000000000000000000000600052602260045260246000fd5b60006002820490506001821680610bfb57607f821691505b602082108103610c0e57610c0d610bb4565b5b50919050565b60008190508160005260206000209050919050565b60006020601f8301049050919050565b600082821b905092915050565b600060088302610c767fffffffffffffffffffffffffffffffffffffffffffffffffffffffffffffffff82610c39565b610c808683610c39565b95508019841693508086168417925050509392505050565b6000819050919050565b6000610cbd610cb8610cb384610796565b610c98565b610796565b9050919050565b6000819050919050565b610cd783610ca2565b610ceb610ce382610cc4565b848454610c46565b825550505050565b600090565b610d00610cf3565b610d0b818484610cce565b505050565b5b81811015610d2f57610d24600082610cf8565b600181019050610d11565b5050565b601f821115610d7457610d4581610c14565b610d4e84610c29565b81016020851015610d5d578190505b610d71610d6985610c29565b830182610d10565b50505b505050565b600082821c905092915050565b6000610d9760001984600802610d79565b1980831691505092915050565b6000610db08383610d86565b9150826002028217905092915050565b610dc982610883565b67ffffffffffffffff811115610de257610de161066b565b5b610dec8254610be3565b610df7828285610d33565b600060209050601f831160018114610e2a5760008415610e18578287015190505b610e228582610da4565b865550610e8a565b601f198416610e3886610c14565b60005b82811015610e6057848901518255600182019150602085019450602081019050610e3b565b86831015610e7d5784890151610e79601f891682610d86565b8355505b6001600288020188555050505b505050505050565b600081905092915050565b6000610ea882610883565b610eb28185610e92565b9350610ec281856020860161089f565b80840191505092915050565b6000610eda8284610e9d565b915081905092915050565b6000610ef082610883565b610efa8185610acb565b9350610f0a81856020860161089f565b610f138161065a565b840191505092915050565b610f2781610922565b82525050565b60006060820190508181036000830152610f478186610ee5565b9050610f566020830185610f1e565b610f636040830184610a74565b94935050505056fea26469706673582212203261e2c5935c1c765dfa926220870465d685cd224fb5fa924640ab92ead9fcf764736f6c63430008180033",
  "linkReferences": {},
  "deployedLinkReferences": {}
}